{
  "contractName": "ZoneRegistry",
  "abi": [
    {
      "inputs": [],
      "stateMutability": "nonpayable",
      "type": "constructor"
    },
    {
      "anonymous": false,
      "inputs": [
        {
          "indexed": false,
          "internalType": "address",
          "name": "firstRegisterer",
          "type": "address"
        }
      ],
      "name": "Appended",
      "type": "event"
    },
    {
      "anonymous": false,
      "inputs": [
        {
          "indexed": false,
          "internalType": "address",
          "name": "caller",
          "type": "address"
        },
        {
          "indexed": false,
          "internalType": "bytes32",
          "name": "hash",
          "type": "bytes32"
        },
        {
          "indexed": false,
          "internalType": "string",
          "name": "uri",
          "type": "string"
        }
      ],
      "name": "CreateDID",
      "type": "event"
    },
    {
      "anonymous": false,
      "inputs": [
        {
          "indexed": false,
          "internalType": "address",
          "name": "caller",
          "type": "address"
        }
      ],
      "name": "DeleteDID",
      "type": "event"
    },
    {
      "anonymous": false,
      "inputs": [
        {
          "indexed": false,
          "internalType": "address",
          "name": "caller",
          "type": "address"
        },
        {
          "indexed": false,
          "internalType": "bytes32",
          "name": "hash",
          "type": "bytes32"
        }
      ],
      "name": "UpdateHash",
      "type": "event"
    },
    {
      "anonymous": false,
      "inputs": [
        {
          "indexed": false,
          "internalType": "address",
          "name": "caller",
          "type": "address"
        },
        {
          "indexed": false,
          "internalType": "string",
          "name": "uri",
          "type": "string"
        }
      ],
      "name": "UpdateURI",
      "type": "event"
    },
    {
      "inputs": [
        {
          "internalType": "bytes32",
          "name": "_hash",
          "type": "bytes32"
        },
        {
          "internalType": "string",
          "name": "_uri",
          "type": "string"
        }
      ],
      "name": "register",
      "outputs": [],
      "stateMutability": "nonpayable",
      "type": "function"
    },
    {
      "inputs": [
        {
          "internalType": "address",
          "name": "_toBeDeleted",
          "type": "address"
        }
      ],
      "name": "deregister",
      "outputs": [],
      "stateMutability": "nonpayable",
      "type": "function"
    },
    {
      "inputs": [
        {
          "internalType": "address",
          "name": "_addr",
          "type": "address"
        }
      ],
      "name": "getURI",
      "outputs": [
        {
          "internalType": "string",
          "name": "",
          "type": "string"
        }
      ],
      "stateMutability": "view",
      "type": "function",
      "constant": true
    },
    {
      "inputs": [
        {
          "internalType": "address",
          "name": "_addr",
          "type": "address"
        }
      ],
      "name": "isRegistered",
      "outputs": [
        {
          "internalType": "bool",
          "name": "",
          "type": "bool"
        }
      ],
      "stateMutability": "view",
      "type": "function",
      "constant": true
    },
    {
      "inputs": [],
      "name": "getExistingDIDs",
      "outputs": [
        {
          "components": [
            {
              "internalType": "bool",
              "name": "exist",
              "type": "bool"
            },
            {
              "internalType": "bytes32",
              "name": "hash",
              "type": "bytes32"
            },
            {
              "internalType": "string",
              "name": "uri",
              "type": "string"
            }
          ],
          "internalType": "struct ZoneRegistry.DID[]",
          "name": "",
          "type": "tuple[]"
        }
      ],
      "stateMutability": "nonpayable",
      "type": "function"
    },
    {
      "inputs": [
        {
          "internalType": "address",
          "name": "_addr",
          "type": "address"
        }
      ],
      "name": "getHash",
      "outputs": [
        {
          "internalType": "bytes32",
          "name": "",
          "type": "bytes32"
        }
      ],
      "stateMutability": "view",
      "type": "function",
      "constant": true
    },
    {
      "inputs": [],
      "name": "getExistingAddrs",
      "outputs": [
        {
          "internalType": "address[]",
          "name": "",
          "type": "address[]"
        }
      ],
      "stateMutability": "nonpayable",
      "type": "function"
    }
  ],
  "bytecode": "0x608060405234801561001057600080fd5b50336000806101000a81548173ffffffffffffffffffffffffffffffffffffffff021916908373ffffffffffffffffffffffffffffffffffffffff160217905550611852806100606000396000f3fe608060405234801561001057600080fd5b506004361061007d5760003560e01c8063756d38ce1161005b578063756d38ce146100ee57806384ac33ec1461011e578063c3c5a5471461013a578063cf2d31fb1461016a5761007d565b80631da0b8fc1461008257806332514ade146100b25780636b8343fe146100d0575b600080fd5b61009c60048036036100979190810190611106565b610186565b6040516100a991906115a8565b60405180910390f35b6100ba610261565b6040516100c7919061156b565b60405180910390f35b6100d8610537565b6040516100e59190611549565b60405180910390f35b61010860048036036101039190810190611106565b61070d565b60405161011591906115c3565b60405180910390f35b61013860048036036101339190810190611106565b610880565b005b610154600480360361014f9190810190611106565b61091b565b604051610161919061158d565b60405180910390f35b610184600480360361017f919081019061112f565b610974565b005b6000600260008373ffffffffffffffffffffffffffffffffffffffff1673ffffffffffffffffffffffffffffffffffffffff16815260200190815260200160002060000160009054906101000a900460ff16610217576040517f08c379a000000000000000000000000000000000000000000000000000000000815260040161020e906115e5565b60405180910390fd5b600260008373ffffffffffffffffffffffffffffffffffffffff1673ffffffffffffffffffffffffffffffffffffffff168152602001908152602001600020600101549050919050565b606060008090505b60018054905081101561041257600260006001838154811061028757fe5b9060005260206000200160009054906101000a900473ffffffffffffffffffffffffffffffffffffffff1673ffffffffffffffffffffffffffffffffffffffff1673ffffffffffffffffffffffffffffffffffffffff16815260200190815260200160002060000160009054906101000a900460ff1615610405576003600260006001848154811061031557fe5b9060005260206000200160009054906101000a900473ffffffffffffffffffffffffffffffffffffffff1673ffffffffffffffffffffffffffffffffffffffff1673ffffffffffffffffffffffffffffffffffffffff16815260200190815260200160002090806001815401808255809150506001900390600052602060002090600302016000909190919091506000820160009054906101000a900460ff168160000160006101000a81548160ff0219169083151502179055506001820154816001015560028201816002019080546001816001161561010002031660029004610401929190610edc565b5050505b8080600101915050610269565b506003805480602002602001604051908101604052809291908181526020016000905b8282101561052e57838290600052602060002090600302016040518060600160405290816000820160009054906101000a900460ff1615151515815260200160018201548152602001600282018054600181600116156101000203166002900480601f0160208091040260200160405190810160405280929190818152602001828054600181600116156101000203166002900480156105165780601f106104eb57610100808354040283529160200191610516565b820191906000526020600020905b8154815290600101906020018083116104f957829003601f168201915b50505050508152505081526020019060010190610435565b50505050905090565b606060008090505b60018054905081101561068057600260006001838154811061055d57fe5b9060005260206000200160009054906101000a900473ffffffffffffffffffffffffffffffffffffffff1673ffffffffffffffffffffffffffffffffffffffff1673ffffffffffffffffffffffffffffffffffffffff16815260200190815260200160002060000160009054906101000a900460ff1615610673576004600182815481106105e757fe5b9060005260206000200160009054906101000a900473ffffffffffffffffffffffffffffffffffffffff169080600181540180825580915050600190039060005260206000200160009091909190916101000a81548173ffffffffffffffffffffffffffffffffffffffff021916908373ffffffffffffffffffffffffffffffffffffffff1602179055505b808060010191505061053f565b50600480548060200260200160405190810160405280929190818152602001828054801561070357602002820191906000526020600020905b8160009054906101000a900473ffffffffffffffffffffffffffffffffffffffff1673ffffffffffffffffffffffffffffffffffffffff16815260200190600101908083116106b9575b5050505050905090565b6060600260008373ffffffffffffffffffffffffffffffffffffffff1673ffffffffffffffffffffffffffffffffffffffff16815260200190815260200160002060000160009054906101000a900460ff1661079e576040517f08c379a0000000000000000000000000000000000000000000000000000000008152600401610795906115e5565b60405180910390fd5b600260008373ffffffffffffffffffffffffffffffffffffffff1673ffffffffffffffffffffffffffffffffffffffff1681526020019081526020016000206002018054600181600116156101000203166002900480601f0160208091040260200160405190810160405280929190818152602001828054600181600116156101000203166002900480156108745780601f1061084957610100808354040283529160200191610874565b820191906000526020600020905b81548152906001019060200180831161085757829003601f168201915b50505050509050919050565b6000809054906101000a900473ffffffffffffffffffffffffffffffffffffffff1673ffffffffffffffffffffffffffffffffffffffff163373ffffffffffffffffffffffffffffffffffffffff16148061090657503373ffffffffffffffffffffffffffffffffffffffff168173ffffffffffffffffffffffffffffffffffffffff16145b61090f57600080fd5b61091881610a7e565b50565b6000600260008373ffffffffffffffffffffffffffffffffffffffff1673ffffffffffffffffffffffffffffffffffffffff16815260200190815260200160002060000160009054906101000a900460ff169050919050565b600260003373ffffffffffffffffffffffffffffffffffffffff1673ffffffffffffffffffffffffffffffffffffffff16815260200190815260200160002060000160009054906101000a900460ff1615610a6f57600260003373ffffffffffffffffffffffffffffffffffffffff1673ffffffffffffffffffffffffffffffffffffffff16815260200190815260200160002060000160009054906101000a900460ff16610a58576040517f08c379a0000000000000000000000000000000000000000000000000000000008152600401610a4f906115e5565b60405180910390fd5b610a6182610b13565b610a6a81610bd8565b610a7a565b610a798282610cac565b5b5050565b6000600260008373ffffffffffffffffffffffffffffffffffffffff1673ffffffffffffffffffffffffffffffffffffffff16815260200190815260200160002060000160006101000a81548160ff0219169083151502179055507fb7542c723b196c87c43e9a6d4607bcf8182e6ea3002906d618ab0cd81bda8c9d81604051610b08919061147c565b60405180910390a150565b80600260003373ffffffffffffffffffffffffffffffffffffffff1673ffffffffffffffffffffffffffffffffffffffff168152602001908152602001600020600101819055507fc42cbb7be1ccaaf63974c0159f5c5859e3c5fdb23db506b86f1c350d32f4244233600260003373ffffffffffffffffffffffffffffffffffffffff1673ffffffffffffffffffffffffffffffffffffffff16815260200190815260200160002060010154604051610bcd9291906114b2565b60405180910390a150565b80600260003373ffffffffffffffffffffffffffffffffffffffff1673ffffffffffffffffffffffffffffffffffffffff1681526020019081526020016000206002019080519060200190610c2e929190610f63565b507f76fd31041514325f76538071ece8f9daf0b49607338fd88e1d6cf03686ecdd5333600260003373ffffffffffffffffffffffffffffffffffffffff1673ffffffffffffffffffffffffffffffffffffffff168152602001908152602001600020600201604051610ca1929190611519565b60405180910390a150565b604051806060016040528060011515815260200183815260200182815250600260003373ffffffffffffffffffffffffffffffffffffffff1673ffffffffffffffffffffffffffffffffffffffff16815260200190815260200160002060008201518160000160006101000a81548160ff021916908315150217905550602082015181600101556040820151816002019080519060200190610d4f929190610fe3565b50905050610d5c33610e3a565b610dfb576001339080600181540180825580915050600190039060005260206000200160009091909190916101000a81548173ffffffffffffffffffffffffffffffffffffffff021916908373ffffffffffffffffffffffffffffffffffffffff1602179055507f6e5ad783e5c531091e3bceda90e2fa93dd52324e51511a7dae09a29d8c6783d933604051610df29190611497565b60405180910390a15b7f59bb4b7f6ea982ef01c36f918743c1044fe6f180dd1304c1e825d73f5f9bb078338383604051610e2e939291906114db565b60405180910390a15050565b600080600090505b600180549050811015610ed15760018181548110610e5c57fe5b9060005260206000200160009054906101000a900473ffffffffffffffffffffffffffffffffffffffff1673ffffffffffffffffffffffffffffffffffffffff168373ffffffffffffffffffffffffffffffffffffffff161415610ec4576001915050610ed7565b8080600101915050610e42565b50600090505b919050565b828054600181600116156101000203166002900490600052602060002090601f016020900481019282601f10610f155780548555610f52565b82800160010185558215610f5257600052602060002091601f016020900482015b82811115610f51578254825591600101919060010190610f36565b5b509050610f5f9190611063565b5090565b828054600181600116156101000203166002900490600052602060002090601f016020900481019282601f10610fa457805160ff1916838001178555610fd2565b82800160010185558215610fd2579182015b82811115610fd1578251825591602001919060010190610fb6565b5b509050610fdf9190611063565b5090565b828054600181600116156101000203166002900490600052602060002090601f016020900481019282601f1061102457805160ff1916838001178555611052565b82800160010185558215611052579182015b82811115611051578251825591602001919060010190611036565b5b50905061105f9190611063565b5090565b61108591905b80821115611081576000816000905550600101611069565b5090565b90565b600081359050611097816117ee565b92915050565b6000813590506110ac81611805565b92915050565b600082601f8301126110c357600080fd5b81356110d66110d182611632565b611605565b915080825260208301602083018583830111156110f257600080fd5b6110fd83828461179b565b50505092915050565b60006020828403121561111857600080fd5b600061112684828501611088565b91505092915050565b6000806040838503121561114257600080fd5b60006111508582860161109d565b925050602083013567ffffffffffffffff81111561116d57600080fd5b611179858286016110b2565b9150509250929050565b600061118f83836111be565b60208301905092915050565b60006111a7838361142c565b905092915050565b6111b881611765565b82525050565b6111c78161171d565b82525050565b6111d68161171d565b82525050565b60006111e782611693565b6111f181856116d9565b93506111fc8361165e565b8060005b8381101561122d5781516112148882611183565b975061121f836116bf565b925050600181019050611200565b5085935050505092915050565b60006112458261169e565b61124f81856116ea565b9350836020820285016112618561166e565b8060005b8581101561129d578484038952815161127e858261119b565b9450611289836116cc565b925060208a01995050600181019050611265565b50829750879550505050505092915050565b6112b88161172f565b82525050565b6112c78161172f565b82525050565b6112d68161173b565b82525050565b6112e58161173b565b82525050565b60006112f6826116b4565b611300818561170c565b93506113108185602086016117aa565b611319816117dd565b840191505092915050565b600061132f826116a9565b61133981856116fb565b93506113498185602086016117aa565b611352816117dd565b840191505092915050565b60008154600181166000811461137a57600181146113a0576113e4565b607f600283041661138b818761170c565b955060ff1983168652602086019350506113e4565b600282046113ae818761170c565b95506113b98561167e565b60005b828110156113db578154818901526001820191506020810190506113bc565b80880195505050505b505092915050565b60006113f960128361170c565b91507f44494420646f6573206e6f7420657869737400000000000000000000000000006000830152602082019050919050565b600060608301600083015161144460008601826112af565b50602083015161145760208601826112cd565b506040830151848203604086015261146f8282611324565b9150508091505092915050565b600060208201905061149160008301846111cd565b92915050565b60006020820190506114ac60008301846111af565b92915050565b60006040820190506114c760008301856111af565b6114d460208301846112dc565b9392505050565b60006060820190506114f060008301866111af565b6114fd60208301856112dc565b818103604083015261150f81846112eb565b9050949350505050565b600060408201905061152e60008301856111af565b8181036020830152611540818461135d565b90509392505050565b6000602082019050818103600083015261156381846111dc565b905092915050565b60006020820190508181036000830152611585818461123a565b905092915050565b60006020820190506115a260008301846112be565b92915050565b60006020820190506115bd60008301846112dc565b92915050565b600060208201905081810360008301526115dd81846112eb565b905092915050565b600060208201905081810360008301526115fe816113ec565b9050919050565b6000604051905081810181811067ffffffffffffffff8211171561162857600080fd5b8060405250919050565b600067ffffffffffffffff82111561164957600080fd5b601f19601f8301169050602081019050919050565b6000819050602082019050919050565b6000819050602082019050919050565b60008190508160005260206000209050919050565b600081519050919050565b600081519050919050565b600081519050919050565b600081519050919050565b6000602082019050919050565b6000602082019050919050565b600082825260208201905092915050565b600082825260208201905092915050565b600082825260208201905092915050565b600082825260208201905092915050565b600061172882611745565b9050919050565b60008115159050919050565b6000819050919050565b600073ffffffffffffffffffffffffffffffffffffffff82169050919050565b600061177082611777565b9050919050565b600061178282611789565b9050919050565b600061179482611745565b9050919050565b82818337600083830152505050565b60005b838110156117c85780820151818401526020810190506117ad565b838111156117d7576000848401525b50505050565b6000601f19601f8301169050919050565b6117f78161171d565b811461180257600080fd5b50565b61180e8161173b565b811461181957600080fd5b5056fea2646970667358221220b1320942886c26fbf010b00a506b06c7ab8fa4175f30aa1ce3b58cf949fff44064736f6c63430006010033",
  "source": "pragma solidity ^0.6.1;\npragma experimental ABIEncoderV2;\ncontract ZoneRegistry {\n    address admin;\n    address[] registeredAddrs;\n\n    struct DID {\n        bool exist;\n        bytes32 hash;\n        string uri;\n    }\n\n    mapping(address => DID) DIDs;\n    event Appended(address firstRegisterer);\n    event CreateDID(address caller, bytes32 hash, string uri);\n    event UpdateHash(address caller, bytes32 hash);\n    event UpdateURI(address caller, string uri);\n    event DeleteDID(address caller);\n\n    constructor() public {\n        admin = msg.sender;\n    }\n\n    //MAIN FUNCTIONS\n\n    function register(bytes32 _hash, string memory _uri) public {\n        if (DIDs[msg.sender].exist) {\n            require(DIDs[msg.sender].exist, \"DID does not exist\");\n            updateHash(_hash);\n            updateURI(_uri);\n        } else {\n            createDID(_hash, _uri);\n        }\n    }\n\n    function deregister(address _toBeDeleted) public {\n        require(msg.sender == admin || _toBeDeleted == msg.sender);\n        deleteDID(_toBeDeleted);\n    }\n\n    function getURI(address _addr) public view returns (string memory) {\n        require(DIDs[_addr].exist, \"DID does not exist\");\n        return DIDs[_addr].uri;\n    }\n\n    function isRegistered(address _addr) public view returns (bool) {\n        return DIDs[_addr].exist;\n    }\n\n    //hope this works on the client side\n    //used when checking if a tracker violated any zone\n    DID[] existingDID;\n    function getExistingDIDs() public returns (DID[] memory) {\n        for (uint256 i = 0; i < registeredAddrs.length; i++) {\n            if (DIDs[registeredAddrs[i]].exist) {\n                existingDID.push(DIDs[registeredAddrs[i]]);\n            }\n        }\n        return existingDID;\n    }\n\n    //AVAILABLE FUNCTIONS BUT NOT THAY IMPORTANT\n    //get hash\n    function getHash(address _addr) public view returns (bytes32) {\n        require(DIDs[_addr].exist, \"DID does not exist\");\n        return DIDs[_addr].hash;\n    }\n\n    //we dont need this if getExisitingDIDs works\n    address[] existingAddrs;\n    function getExistingAddrs() public returns (address[] memory) {\n        for (uint256 i = 0; i < registeredAddrs.length; i++) {\n            if (DIDs[registeredAddrs[i]].exist) {\n                existingAddrs.push(registeredAddrs[i]);\n            }\n        }\n        return existingAddrs;\n    }\n\n    //HELPER FUNCTIONS, DONT WORRY\n    function registeredBefore(address _addr) internal view returns (bool) {\n        for (uint256 i = 0; i < registeredAddrs.length; i++) {\n            if (_addr == registeredAddrs[i]) return true;\n        }\n        return false;\n    }\n\n    function createDID(bytes32 _hash, string memory _uri) internal {\n        DIDs[msg.sender] = DID(true, _hash, _uri);\n        if (!registeredBefore(msg.sender)) {\n            registeredAddrs.push(msg.sender);\n            emit Appended(msg.sender);\n        }\n        emit CreateDID(msg.sender, _hash, _uri);\n    }\n\n    function updateHash(bytes32 _hash) internal {\n        DIDs[msg.sender].hash = _hash;\n        emit UpdateHash(msg.sender, DIDs[msg.sender].hash);\n    }\n\n    function updateURI(string memory _uri) internal {\n        DIDs[msg.sender].uri = _uri;\n        emit UpdateURI(msg.sender, DIDs[msg.sender].uri);\n    }\n\n    function deleteDID(address _addr) internal {\n        DIDs[_addr].exist = false;\n        emit DeleteDID(_addr);\n    }\n\n}\n",
  "sourcePath": "/Users/Leo/code/zoneContract/contracts/ZoneRegistry.sol",
  "compiler": {
    "name": "solc",
    "version": "0.6.1+commit.e6f7d5a4.Emscripten.clang"
  },
  "schemaVersion": "3.0.23",
  "updatedAt": "2020-03-20T22:32:15.777Z",
  "networkType": "ethereum",
  "devdoc": {
    "methods": {}
  },
  "userdoc": {
    "methods": {}
  }
}